{
  "_format": "hh-sol-artifact-1",
  "contractName": "SavingsLock",
  "sourceName": "contracts/SavingsLock.sol",
  "abi": [
    {
      "anonymous": false,
      "inputs": [
        {
          "indexed": true,
          "internalType": "uint256",
          "name": "lockId",
          "type": "uint256"
        },
        {
          "indexed": false,
          "internalType": "uint256",
          "name": "amount",
          "type": "uint256"
        },
        {
          "indexed": false,
          "internalType": "uint256",
          "name": "totalAmount",
          "type": "uint256"
        }
      ],
      "name": "Deposited",
      "type": "event"
    },
    {
      "anonymous": false,
      "inputs": [
        {
          "indexed": true,
          "internalType": "uint256",
          "name": "lockId",
          "type": "uint256"
        },
        {
          "indexed": true,
          "internalType": "address",
          "name": "owner",
          "type": "address"
        },
        {
          "indexed": false,
          "internalType": "uint256",
          "name": "unlockTime",
          "type": "uint256"
        },
        {
          "indexed": false,
          "internalType": "uint256",
          "name": "targetAmount",
          "type": "uint256"
        },
        {
          "indexed": false,
          "internalType": "uint256",
          "name": "initialAmount",
          "type": "uint256"
        }
      ],
      "name": "LockCreated",
      "type": "event"
    },
    {
      "anonymous": false,
      "inputs": [
        {
          "indexed": true,
          "internalType": "uint256",
          "name": "lockId",
          "type": "uint256"
        },
        {
          "indexed": false,
          "internalType": "uint256",
          "name": "amount",
          "type": "uint256"
        }
      ],
      "name": "Withdrawn",
      "type": "event"
    },
    {
      "inputs": [
        {
          "internalType": "uint256",
          "name": "_unlockTime",
          "type": "uint256"
        },
        {
          "internalType": "uint256",
          "name": "_targetAmount",
          "type": "uint256"
        }
      ],
      "name": "createLock",
      "outputs": [],
      "stateMutability": "payable",
      "type": "function"
    },
    {
      "inputs": [
        {
          "internalType": "uint256",
          "name": "_lockId",
          "type": "uint256"
        }
      ],
      "name": "deposit",
      "outputs": [],
      "stateMutability": "payable",
      "type": "function"
    },
    {
      "inputs": [
        {
          "internalType": "uint256",
          "name": "_lockId",
          "type": "uint256"
        }
      ],
      "name": "getLock",
      "outputs": [
        {
          "components": [
            {
              "internalType": "uint256",
              "name": "amount",
              "type": "uint256"
            },
            {
              "internalType": "uint256",
              "name": "unlockTime",
              "type": "uint256"
            },
            {
              "internalType": "uint256",
              "name": "targetAmount",
              "type": "uint256"
            },
            {
              "internalType": "bool",
              "name": "withdrawn",
              "type": "bool"
            },
            {
              "internalType": "address",
              "name": "owner",
              "type": "address"
            }
          ],
          "internalType": "struct SavingsLock.Lock",
          "name": "",
          "type": "tuple"
        }
      ],
      "stateMutability": "view",
      "type": "function"
    },
    {
      "inputs": [
        {
          "internalType": "address",
          "name": "_user",
          "type": "address"
        }
      ],
      "name": "getUserLocks",
      "outputs": [
        {
          "internalType": "uint256[]",
          "name": "",
          "type": "uint256[]"
        }
      ],
      "stateMutability": "view",
      "type": "function"
    },
    {
      "inputs": [
        {
          "internalType": "uint256",
          "name": "",
          "type": "uint256"
        }
      ],
      "name": "locks",
      "outputs": [
        {
          "internalType": "uint256",
          "name": "amount",
          "type": "uint256"
        },
        {
          "internalType": "uint256",
          "name": "unlockTime",
          "type": "uint256"
        },
        {
          "internalType": "uint256",
          "name": "targetAmount",
          "type": "uint256"
        },
        {
          "internalType": "bool",
          "name": "withdrawn",
          "type": "bool"
        },
        {
          "internalType": "address",
          "name": "owner",
          "type": "address"
        }
      ],
      "stateMutability": "view",
      "type": "function"
    },
    {
      "inputs": [],
      "name": "nextLockId",
      "outputs": [
        {
          "internalType": "uint256",
          "name": "",
          "type": "uint256"
        }
      ],
      "stateMutability": "view",
      "type": "function"
    },
    {
      "inputs": [
        {
          "internalType": "address",
          "name": "",
          "type": "address"
        },
        {
          "internalType": "uint256",
          "name": "",
          "type": "uint256"
        }
      ],
      "name": "userLocks",
      "outputs": [
        {
          "internalType": "uint256",
          "name": "",
          "type": "uint256"
        }
      ],
      "stateMutability": "view",
      "type": "function"
    },
    {
      "inputs": [
        {
          "internalType": "uint256",
          "name": "_lockId",
          "type": "uint256"
        }
      ],
      "name": "withdraw",
      "outputs": [],
      "stateMutability": "nonpayable",
      "type": "function"
    }
  ],
  "bytecode": "0x608060405234801561001057600080fd5b5061122f806100206000396000f3fe60806040526004361061007b5760003560e01c8063b52c05fe1161004e578063b52c05fe1461014e578063b6b55f251461016a578063d68f4dd114610186578063f4dadc61146101c35761007b565b806323a35de9146100805780632e1a7d4d146100bd5780636518a0b3146100e6578063aa33fedb14610111575b600080fd5b34801561008c57600080fd5b506100a760048036038101906100a29190610a6b565b610204565b6040516100b49190610b60565b60405180910390f35b3480156100c957600080fd5b506100e460048036038101906100df9190610bae565b61029b565b005b3480156100f257600080fd5b506100fb61055d565b6040516101089190610bea565b60405180910390f35b34801561011d57600080fd5b5061013860048036038101906101339190610c05565b610563565b6040516101459190610bea565b60405180910390f35b61016860048036038101906101639190610c45565b610594565b005b610184600480360381019061017f9190610bae565b61074b565b005b34801561019257600080fd5b506101ad60048036038101906101a89190610bae565b6108a3565b6040516101ba9190610d17565b60405180910390f35b3480156101cf57600080fd5b506101ea60048036038101906101e59190610bae565b61095e565b6040516101fb959493929190610d50565b60405180910390f35b6060600160008373ffffffffffffffffffffffffffffffffffffffff1673ffffffffffffffffffffffffffffffffffffffff16815260200190815260200160002080548060200260200160405190810160405280929190818152602001828054801561028f57602002820191906000526020600020905b81548152602001906001019080831161027b575b50505050509050919050565b600080600083815260200190815260200160002090508060030160019054906101000a900473ffffffffffffffffffffffffffffffffffffffff1673ffffffffffffffffffffffffffffffffffffffff163373ffffffffffffffffffffffffffffffffffffffff1614610343576040517f08c379a000000000000000000000000000000000000000000000000000000000815260040161033a90610e00565b60405180910390fd5b8060030160009054906101000a900460ff1615610395576040517f08c379a000000000000000000000000000000000000000000000000000000000815260040161038c90610e6c565b60405180910390fd5b6000816001015411156103ea5780600101544210156103e9576040517f08c379a00000000000000000000000000000000000000000000000000000000081526004016103e090610ed8565b60405180910390fd5b5b60008160020154111561044357806002015481600001541015610442576040517f08c379a000000000000000000000000000000000000000000000000000000000815260040161043990610f44565b60405180910390fd5b5b60018160030160006101000a81548160ff0219169083151502179055506000816000015490506000826000018190555060003373ffffffffffffffffffffffffffffffffffffffff168260405161049990610f95565b60006040518083038185875af1925050503d80600081146104d6576040519150601f19603f3d011682016040523d82523d6000602084013e6104db565b606091505b505090508061051f576040517f08c379a000000000000000000000000000000000000000000000000000000000815260040161051690610ff6565b60405180910390fd5b837f0c875c8d391179c5cf7ad8303d268efd50b8beb78b671f85cd54bfb91eb8ef408360405161054f9190610bea565b60405180910390a250505050565b60025481565b6001602052816000526040600020818154811061057f57600080fd5b90600052602060002001600091509150505481565b60006002549050600260008154809291906105ae90611045565b91905055506040518060a001604052803481526020018481526020018381526020016000151581526020013373ffffffffffffffffffffffffffffffffffffffff1681525060008083815260200190815260200160002060008201518160000155602082015181600101556040820151816002015560608201518160030160006101000a81548160ff02191690831515021790555060808201518160030160016101000a81548173ffffffffffffffffffffffffffffffffffffffff021916908373ffffffffffffffffffffffffffffffffffffffff160217905550905050600160003373ffffffffffffffffffffffffffffffffffffffff1673ffffffffffffffffffffffffffffffffffffffff1681526020019081526020016000208190806001815401808255809150506001900390600052602060002001600090919091909150553373ffffffffffffffffffffffffffffffffffffffff16817f05b86fb5db347563c8af91f328a194cc5079807fa960bcc7e51eff437418613985853460405161073e9392919061108d565b60405180910390a3505050565b60008060008381526020019081526020016000209050600073ffffffffffffffffffffffffffffffffffffffff168160030160019054906101000a900473ffffffffffffffffffffffffffffffffffffffff1673ffffffffffffffffffffffffffffffffffffffff16036107f4576040517f08c379a00000000000000000000000000000000000000000000000000000000081526004016107eb90611110565b60405180910390fd5b8060030160009054906101000a900460ff1615610846576040517f08c379a000000000000000000000000000000000000000000000000000000000815260040161083d9061117c565b60405180910390fd5b3481600001600082825461085a919061119c565b92505081905550817f1ca606821992e3b34613b5b29c0bbade3a907b2969d7f9f2927f726fa4baccfb3483600001546040516108979291906111d0565b60405180910390a25050565b6108ab6109c1565b6000808381526020019081526020016000206040518060a00160405290816000820154815260200160018201548152602001600282015481526020016003820160009054906101000a900460ff161515151581526020016003820160019054906101000a900473ffffffffffffffffffffffffffffffffffffffff1673ffffffffffffffffffffffffffffffffffffffff1673ffffffffffffffffffffffffffffffffffffffff16815250509050919050565b60006020528060005260406000206000915090508060000154908060010154908060020154908060030160009054906101000a900460ff16908060030160019054906101000a900473ffffffffffffffffffffffffffffffffffffffff16905085565b6040518060a00160405280600081526020016000815260200160008152602001600015158152602001600073ffffffffffffffffffffffffffffffffffffffff1681525090565b600080fd5b600073ffffffffffffffffffffffffffffffffffffffff82169050919050565b6000610a3882610a0d565b9050919050565b610a4881610a2d565b8114610a5357600080fd5b50565b600081359050610a6581610a3f565b92915050565b600060208284031215610a8157610a80610a08565b5b6000610a8f84828501610a56565b91505092915050565b600081519050919050565b600082825260208201905092915050565b6000819050602082019050919050565b6000819050919050565b610ad781610ac4565b82525050565b6000610ae98383610ace565b60208301905092915050565b6000602082019050919050565b6000610b0d82610a98565b610b178185610aa3565b9350610b2283610ab4565b8060005b83811015610b53578151610b3a8882610add565b9750610b4583610af5565b925050600181019050610b26565b5085935050505092915050565b60006020820190508181036000830152610b7a8184610b02565b905092915050565b610b8b81610ac4565b8114610b9657600080fd5b50565b600081359050610ba881610b82565b92915050565b600060208284031215610bc457610bc3610a08565b5b6000610bd284828501610b99565b91505092915050565b610be481610ac4565b82525050565b6000602082019050610bff6000830184610bdb565b92915050565b60008060408385031215610c1c57610c1b610a08565b5b6000610c2a85828601610a56565b9250506020610c3b85828601610b99565b9150509250929050565b60008060408385031215610c5c57610c5b610a08565b5b6000610c6a85828601610b99565b9250506020610c7b85828601610b99565b9150509250929050565b60008115159050919050565b610c9a81610c85565b82525050565b610ca981610a2d565b82525050565b60a082016000820151610cc56000850182610ace565b506020820151610cd86020850182610ace565b506040820151610ceb6040850182610ace565b506060820151610cfe6060850182610c91565b506080820151610d116080850182610ca0565b50505050565b600060a082019050610d2c6000830184610caf565b92915050565b610d3b81610c85565b82525050565b610d4a81610a2d565b82525050565b600060a082019050610d656000830188610bdb565b610d726020830187610bdb565b610d7f6040830186610bdb565b610d8c6060830185610d32565b610d996080830184610d41565b9695505050505050565b600082825260208201905092915050565b7f4e6f7420746865206f776e657200000000000000000000000000000000000000600082015250565b6000610dea600d83610da3565b9150610df582610db4565b602082019050919050565b60006020820190508181036000830152610e1981610ddd565b9050919050565b7f416c72656164792077697468647261776e000000000000000000000000000000600082015250565b6000610e56601183610da3565b9150610e6182610e20565b602082019050919050565b60006020820190508181036000830152610e8581610e49565b9050919050565b7f54696d6520636f6e646974696f6e206e6f74206d657400000000000000000000600082015250565b6000610ec2601683610da3565b9150610ecd82610e8c565b602082019050919050565b60006020820190508181036000830152610ef181610eb5565b9050919050565b7f54617267657420616d6f756e74206e6f74207265616368656400000000000000600082015250565b6000610f2e601983610da3565b9150610f3982610ef8565b602082019050919050565b60006020820190508181036000830152610f5d81610f21565b9050919050565b600081905092915050565b50565b6000610f7f600083610f64565b9150610f8a82610f6f565b600082019050919050565b6000610fa082610f72565b9150819050919050565b7f4661696c656420746f2073656e64204574686572000000000000000000000000600082015250565b6000610fe0601483610da3565b9150610feb82610faa565b602082019050919050565b6000602082019050818103600083015261100f81610fd3565b9050919050565b7f4e487b7100000000000000000000000000000000000000000000000000000000600052601160045260246000fd5b600061105082610ac4565b91507fffffffffffffffffffffffffffffffffffffffffffffffffffffffffffffffff820361108257611081611016565b5b600182019050919050565b60006060820190506110a26000830186610bdb565b6110af6020830185610bdb565b6110bc6040830184610bdb565b949350505050565b7f4c6f636b20646f6573206e6f7420657869737400000000000000000000000000600082015250565b60006110fa601383610da3565b9150611105826110c4565b602082019050919050565b60006020820190508181036000830152611129816110ed565b9050919050565b7f4c6f636b20616c72656164792077697468647261776e00000000000000000000600082015250565b6000611166601683610da3565b915061117182611130565b602082019050919050565b6000602082019050818103600083015261119581611159565b9050919050565b60006111a782610ac4565b91506111b283610ac4565b92508282019050808211156111ca576111c9611016565b5b92915050565b60006040820190506111e56000830185610bdb565b6111f26020830184610bdb565b939250505056fea2646970667358221220b7724f93ae86bf04a0f0142253a1c9d2778840254fd73f766d28660f5be1af5f64736f6c63430008170033",
  "linkReferences": {},
  "deployedLinkReferences": {}
}